:020000040800F2
:10000000002000204D070008290700082B070008E2
:1000100000000000000000000000000000000000E0
:100020000000000000000000000000002D07000894
:1000300000000000000000002F0700083107000842
:100040009D0700089D0700089D0700089D07000800
:100050009D0700089D0700089D0700089D070008F0
:1000600000000000390700089D0700089D070008F0
:100070009D0700089D0700089D0700089D070008D0
:100080009D0700089D0700089D0700089D070008C0
:10009000000000009D0700089D0700089D0700085C
:1000A0009D0700089D0700089D0700089D070008A0
:0C00B0009D0700089D07000800000000EC
:1000BC00002243088B4274D303098B425FD3030A9B
:1000CC008B4244D3030B8B4228D3030C8B420DD3AE
:1000DC00FF22090212BA030C8B4202D3121209023C
:1000EC0065D0030B8B4219D300E0090AC30B8B427A
:1000FC0001D3CB03C01A5241830B8B4201D38B0328
:10010C00C01A5241430B8B4201D34B03C01A5241CC
:10011C00030B8B4201D30B03C01A5241C30A8B420F
:10012C0001D3CB02C01A5241830A8B4201D38B02FA
:10013C00C01A5241430A8B4201D34B02C01A52419E
:10014C00030A8B4201D30B02C01A5241CDD2C30910
:10015C008B4201D3CB01C01A524183098B4201D38C
:10016C008B01C01A524143098B4201D34B01C01A77
:10017C00524103098B4201D30B01C01A5241C308EF
:10018C008B4201D3CB00C01A524183088B4201D35E
:10019C008B00C01A524143088B4201D34B00C01A4A
:1001AC005241411A00D20146524110467047FFE7B6
:1001BC0001B5002000F006F802BDC0460029F7D0BA
:1001CC0076E770477047C0460448054B10B583422C
:1001DC0003D0044B002B00D0984710BD100000201A
:1001EC00100000200000000006480749091A8B1077
:1001FC00C90FC91810B5491003D0044B002B00D0FF
:10020C00984710BD100000201000002000000000D6
:10021C0010B5074C2378002B09D1FFF7D5FF054B00
:10022C00002B02D0044800E000BF0123237010BD56
:10023C00100000200000000014260008054B10B52B
:10024C00002B03D00449054800E000BFFFF7CCFFAA
:10025C0010BDC04600000000140000201426000849
:10026C0082B0054A516B012319435163526B134001
:10027C000193019B02B070470010024000B583B09F
:10028C00094A916B012319439163926B13400193BB
:10029C00019B00220021092000F0E0FA092000F067
:1002AC000DFB03B000BDC0460010024010B500218C
:1002BC0001F07EFF014B01221A6010BD4C000020A2
:1002CC0010B5002014E00D2441000918CB009B1838
:1002DC0010495B005C52013A002A08DB0E4B81008E
:1002EC00C958012393400B42EDD01A24ECE701309E
:1002FC00072801DC1722EFE7064A0848C123002132
:10030C0001F002FE064B1B68002BFBD0044B0022B5
:10031C001A6010BDF80000202C000020AC0000205A
:10032C004C00002082B0019003041B0E6A4613702F
:10033C0003021B0E53709070009802B0704772B697
:10034C00FEE7000000B59DB01022002118A802F0B5
:10035C0069F80C22002115A802F064F81C22002177
:10036C000EA802F05FF83422002101A802F05AF81E
:10037C002F48304B03600023436083602722C26008
:10038C0003614361836101F0DFFB002844D18023CA
:10039C005B011893264818A901F024FD00283DD1D3
:1003AC00234801F001FC00283AD100231593169341
:1003BC0017931F4815A901F093FF002832D1602331
:1003CC000E9300230F931093119312931393149382
:1003DC00174800220EA901F057FC002824D1002355
:1003EC000193029303930493059380229201069246
:1003FC00079308930993802292040A920B930C930F
:10040C000D930B4801A901F0A7FF00280ED1084855
:10041C0000F05CF91DB000BDFFF791FFFFF78FFFF7
:10042C00FFF78DFFFFF78BFFFFF789FFFFF787FFC4
:10043C00AC000020002C014000B593B03822002104
:10044C0004A801F0EFFF10220021684601F0EAFF3A
:10045C008020800000F0B4FC022304938022520020
:10046C00079200220892402109910B930C930D9254
:10047C0006330E9380239B020F9380239B041093CF
:10048C0080239B05119304A800F0C4FC002810D114
:10049C0007230093053B019380231B010293002348
:1004AC0003930121684600F06DFF002803D113B0BF
:1004BC0000BDFFF744FFFFF742FF000070B500F0EE
:1004CC0095F9FFF7B9FFFFF7CBFEFFF7D7FEFFF764
:1004DC0039FF8DE0474A9900002088500133072BE3
:1004EC00F8DDFF200004FFF71DFF424B9860FFF77B
:1004FC00E7FEFA2000F0A0F9002304E03D4A990041
:10050C00002088500133072BF8DDFF200002FFF795
:10051C0009FF384B9861FFF7D3FEFA2000F08CF9F5
:10052C00002304E0334A9900002088500133072B44
:10053C00F8DDFF20FFF7F6FE2E4B1861FFF7C0FE2B
:10054C00FA2000F079F9002304E02A4A99000020EF
:10055C0088500133072BF8DD264CFF231B04236046
:10056C00FFF7AEFEFA256D00280000F065F9F023C8
:10057C001B046360FFF7A4FE280000F05DF9FF2365
:10058C001B02A360FFF79CFE280000F055F9FF2327
:10059C00E360FFF795FE280000F04EF9164B23613F
:1005AC00FFF78EFE280000F047F9144B6361FFF74C
:1005BC0087FE280000F040F9114BA361FFF780FE85
:1005CC00280000F039F90F4BE361FFF779FE2800A2
:1005DC0000F032F9002304E0064A9900002088500C
:1005EC000133072BF8DDFFF76BFE074800F024F909
:1005FC00002374E72C000020FFFFFF00FF00FF002A
:10060C0000FFFF00FFFF0000DC05000082B00A4B7A
:10061C00196C012211431964196C0A400092009A5A
:10062C00DA6B802149050A43DA63DB6B0B400193DB
:10063C00019B02B07047C0460010024010B58CB050
:10064C0004002822002102A801F0ECFE22681B4BBA
:10065C009A4201D00CB010BD80239B03029302A8D8
:10066C0000F056FF002823D1154B1A6C802109018C
:10067C000A431A641B6C0B400193019B1148124BEB
:10068C00036014234360043B83600023C360802217
:10069C000261803242618022D2008261C3610362B6
:1006AC0000F088F9002806D1064B63629C62D1E702
:1006BC00FFF745FED8E7FFF742FEF5E7002C0140B7
:1006CC0000100240500000200800024010B586B017
:1006DC0004001422002101A801F0A4FE22680D4B95
:1006EC009A4201D006B010BD0B4A516B012319433D
:1006FC005163526B13400093009B80235B0001936A
:10070C00FE3B02930593A02001A9C00500F09EFAC0
:10071C00E8E7C046002C014000100240FEE7FEE76F
:10072C007047704710B500F075F810BD10B5024851
:10073C0000F026FA10BDC0465000002070470000A3
:10074C000D488546FFF7FAFF0C480D490D4A00236A
:10075C0002E0D458C4500433C4188C42F9D30A4A6A
:10076C000A4C002301E013600432A242FBD301F0D7
:10077C00ADFEFFF7A3FEFEE70020002000000020E6
:10078C0010000020982700081000002018040020FA
:10079C00FEE7000010B50400114B1978002901D1B7
:1007AC00012010BDFA208000FFF782FC01000D4BE8
:1007BC001868FFF77DFC00F08DF800280DD1032C94
:1007CC0001D90120EDE7013000222100404200F068
:1007DC0045F8054B1C600020E3E70120E1E7C0462B
:1007EC0004000020000000200800002010B5084A7A
:1007FC00116880235B000B4313600320FFF7CAFFD3
:10080C00041E02D00124200010BDFFF7FFFEFAE702
:10081C0000200240034B1B78034A11685B181360DD
:10082C007047C046040000207C020020014B186871
:10083C007047C0467C02002070B50400FFF7F6FF3D
:10084C000500631C02D0044B1B78E418FFF7EEFF85
:10085C00401BA042FAD370BD0400002070B50028E4
:10086C0011DB8308134DC0339B005C5903221040ED
:10087C00C000FC3216008640B44389010A40824015
:10088C0022435A5170BD0F230340083B9B0806338B
:10089C009B00094A944663445C6803221040C000E4
:1008AC00FC3215008540AC4389010A40824022434A
:1008BC005A60E7E700E100E000ED00E0002805DB0E
:1008CC001F2318401E3B8340014A13607047C046EB
:1008DC0000E100E0013880235B0498420FD2094A02
:1008EC0050600948036A1B021B0AC02109060B430E
:1008FC0003620023936007331360002070470120CC
:10090C00FCE7C04610E000E000ED00E0F0B5846CC0
:10091C00C56C6560046D002C02D0446D856D6560FE
:10092C000B4F7C68056C1C262E400125B5402C43D2
:10093C007C60046863608368102B04D00368996042
:10094C000368DA60F0BD03689A600368D960F9E760
:10095C000000024010B50400036C9B08094A944641
:10096C0063449B0043640368FF201840083814213B
:10097C00FFF79EFB044BA3641F2318401E3B8340D0
:10098C00E36410BD008200108008024042683F23DF
:10099C001340064A9A1892000265054A4265013BCB
:1009AC0003221A4001239340836570473F82001055
:1009BC004009024070B5041E4DD00568274BE8185D
:1009CC001421FFF775FB8000206425230222E254DA
:1009DC002B68234A13402B6021680A68A368E068DF
:1009EC0003432069034360690343A0690343E0693F
:1009FC000343206A034313430B602000FFF7AAFF55
:100A0C00A2688023DB019A4218D06168626C3F2394
:100A1C000B401360A36CE26C5A606368013B032BC0
:100A2C000FD9002323656365A3650023E3632522A7
:100A3C000121A154013AA354002070BD002363602E
:100A4C00E3E72000FFF7A2FF236D00221A60636D1D
:100A5C00A26D5A60E9E70120EFE7C046F8FFFDBF41
:100A6C000F80FFFF70B504002420205C012845D0C6
:100A7C002420012525540130205C012806D0802338
:100A8C00E3635C3B0022E254012070BD243001354D
:100A9C0025540020E063256828680126B0432860AF
:100AAC002000FFF733FF236B002B1CD02268136848
:100ABC000E210B431360626C1368DB0304D51168C1
:100ACC0080235B000B431360236D002B04D019684B
:100ADC00802252000A431A602268136801210B43DA
:100AEC0013600020D1E72268136804218B43136044
:100AFC002268136806310B431360DCE70220C4E75D
:100B0C0070B52523C35C022B03D00423C3630120DF
:100B1C0070BD026813680E218B43136001680A686C
:100B2C0001239A430A60416C0A68134C22400A6004
:100B3C00124C6268056C1C2129408B401343636086
:100B4C00836CC26C5A60036D002B06D01A680A497C
:100B5C000A401A60436D826D5A6025230122C254EB
:100B6C00013B0022C254836B002B02D0984700201B
:100B7C00CEE70020CCE7C046FFFEFFFF000002409E
:100B8C0070B5314B196804682568026C1C2313403E
:100B9C0004229A40114216D06A0714D523689B068A
:100BAC0003D42368042293432360274C6368026CAC
:100BBC001C21114004228A4013436360036B002BF9
:100BCC0000D0984770BD02229A4011421CD0AA074F
:100BDC001AD523689B0606D423680A229343236004
:100BEC002523093AC254184C6368026C1C2111402D
:100BFC0002228A401343636024230022C254C36A36
:100C0C00002BDFD09847DDE708229A401142D9D05B
:100C1C002D07D7D523680E22934323600A4C6268B4
:100C2C00036C1C21194001231D008D402A43626076
:100C3C00C3632522835423330022C254436B002BFD
:100C4C00C0D09847BEE7C04600000240F0B5002374
:100C5C0059E086685F000324BC40A643CC68BC40C6
:100C6C0034438460446894434E6836090122324010
:100C7C009A402243426056E0DE080836B6003758E8
:100C8C0005321A4092000F249440A7430C699440FB
:100C9C0022003A43325059E0032600E00026A640D9
:100CAC0034003C43424E1832920094513768EA4368
:100CBC003E00AE434C68E40201D53E002E433C4C52
:100CCC00266067683E0016404C68A40201D53E00C1
:100CDC002E43374C66608426A7593E0016404C685C
:100CEC00A40301D53E002E43314C8427E6518026C7
:100CFC00A65932404C68E40301D52A0032432C4DEE
:100D0C0080242A5101330C682200DA404ED0012293
:100D1C009A40250015401442F4D04E680324344008
:100D2C00013C012C95D94C6803222240032A08D09F
:100D3C00C4685E000322B24094438A68B2402243E6
:100D4C00C2604C6803222240022A95D004685E00DF
:100D5C0003221700B740BC434F683A40B2402243CD
:100D6C0002604C68C02292021442CBD09A08140044
:100D7C001834A4000E4EA75903241C40E4000F267F
:100D8C00A640B743A026F605B04287D0094EB04224
:100D9C0008D0094EB04207D0084EB04200D17BE7D4
:100DAC0005267CE701267AE7022678E7F0BDC046E7
:100DBC00001802400004005000080050000C0050C5
:100DCC0010B5104A136810490B400343136080237D
:100DDC009B00984201D0002010BD0C4B1B685800A2
:100DEC00C01840000A49FFF763F90130054B5B69F5
:100DFC005B0503D5002803D00138F7E70020EBE7AB
:100E0C000320E9E700700040FFF9FFFF000000201D
:100E1C0040420F0070B582B0041E00D131E203686D
:100E2C00DB0739D5C14A916838230B40D1680322BE
:100E3C000A40102B26D0082B26D063688022520241
:100E4C0093427FD0A022D202934200D181E0B74BD3
:100E5C001A68B7490A401A601A68B6490A401A60FB
:100E6C006368002B00D180E0FFF7E0FC0500AF4B7E
:100E7C001B689B0310D4FFF7D9FC401B6428F6D9E0
:100E8C000320FFE1032AD6D1A84B1B689B0303D593
:100E9C006368002B00D1F7E123689B0731D5A34A87
:100EAC00916838230B40D16803220A40102B6AD07A
:100EBC00002B6BD19D4A1268520503D5E268002ABB
:100ECC0000D1E3E1994842689B490A4061690902F3
:100EDC000A434260002B0DD1036898490B402169ED
:100EEC000B4303600368DB0A07221A40944BD34080
:100EFC00944A1360944B1868FFF74CFC002800D000
:100F0C00C6E123681B0700D481E0884B9A6838231C
:100F1C001340182B73D0A369002B00D1B4E0834A83
:100F2C00136E01210B431366FFF780FC05007F4B0A
:100F3C001B6E9B076BD4FFF779FC401B0228F6D97C
:100F4C0003209FE1794A116880235B020B431360F5
:100F5C0086E7764B19688022D2020A431A60196818
:100F6C00802252020A431A607AE7FFF75FFC050001
:100F7C006E4B1B689B038FD5FFF758FC401B6428F6
:100F8C00F6D903207EE1022A92D193E7E368002B85
:100F9C0022D0664A136869490B4021690B431360E0
:100FAC00116880235B000B431360FFF73FFC0500C7
:100FBC005E4B1B685B0506D4FFF738FC401B022810
:100FCC00F6D903205EE159494B685B4A13406269CC
:100FDC00120213434B6094E7544A13685B490B406D
:100FEC001360FFF723FC0500504B1B685B0588D58D
:100FFC00FFF71CFC401B0228F6D9032042E14B4BA7
:10100C001B6E9B0703D5A369002B00D142E123681B
:10101C005B0700D4A2E0454B9A6838231340202B81
:10102C0045D0424BDB6BDB004AD4404BDA6B802162
:10103C0049050A43DA63DB6B0B400193019B0125E5
:10104C00434B1B68DB053DD5A368012B4ED0052B0C
:10105C0052D0364BDA6D01218A43DA65DA6D0331F1
:10106C008A43DA65A368002B50D0FFF7DFFB06003C
:10107C002E4BDB6D9B076FD4FFF7D8FB801B354BDA
:10108C009842F5D90320FDE0284A136E01218B43C9
:10109C001366FFF7CBFB0500244B1B6E9B07B6D5E5
:1010AC00FFF7C4FB401B0228F6D90320EAE01F4BD4
:1010BC00DB6D9B0752D5A368002B4FD10120E1E0DB
:1010CC000025BDE7224A116880235B000B431360A7
:1010DC00FFF7ACFB06001E4B1B68DB05B4D4FFF717
:1010EC00A5FB801B0228F6D90320CBE00F4AD36D59
:1010FC0001210B43D365B5E70C4BDA6D04210A4390
:10110C00DA65DA6D03390A43DA65ABE7FFF78EFB74
:10111C000600064BDB6D9B071ED5FFF787FB801B7C
:10112C000C4B9842F5D90320ACE0C04600100240AD
:10113C00FFFFFEFFFFFFFBFFFF80FFFFFFC7FFFF6F
:10114C000024F4000000002008000020FFFEFFFF38
:10115C000070004088130000012D1ED0E369002BA5
:10116C0000D199E0544A916838220A40102A60D084
:10117C00022B18D0504A136850490B401360FFF7EC
:10118C0055FB04004C4B1B689B014BD5FFF74EFBEA
:10119C00001B0228F6D9032074E0474AD36B484958
:1011AC000B40D363DAE7444A136844490B4013609D
:1011BC00FFF73CFB0500404B1B689B0106D5FFF776
:1011CC0035FB401B0228F6D903205BE03A4AD36872
:1011DC003C491940236A606A0343A06A0002034336
:1011EC00E06A0343206B0343606B03430B43D36000
:1011FC00116880235B040B431360D16880235B056B
:10120C000B43D360FFF712FB04002B4B1B689B01B5
:10121C0006D4FFF70BFB001B0228F6D9032031E0A4
:10122C0000202FE0244AD36827490B40D3600020CC
:10123C0028E0012B32D0204BDA6803231340216ABB
:10124C008B422DD170231340616A8B422AD1FE212F
:10125C00C9011140A36A1B02994225D1F8239B03B3
:10126C001340E16A8B4221D1E0231B051340216B13
:10127C008B421DD1520F5207636B9A421AD1002038
:10128C0000E0012002B070BD0120FBE70120F9E76E
:10129C000120F7E70120F5E70020F3E70120F1E753
:1012AC000120EFE70120EDE70120EBE70120E9E762
:1012BC000120E7E70120E5E700100240FFFFFFFEF9
:1012CC00FFFFFFEF8C80C111FCFFFEEE10B52A4B27
:1012DC009B6838221A4207D1274B1A68D20A072377
:1012EC0013402648D84010BD234B9A68382313402E
:1012FC00082B3BD0204B9A6838231340102B0DD071
:10130C001D4B9A6838231340202B31D01A4B9A6806
:10131C0038231340182B26D00020E4E7164AD16856
:10132C000D3B0B40D2681209072111400131032BF0
:10133C000FD01248FEF7BCFE0F4BDA68120A7F235F
:10134C00134058430C4BD968490F0131FEF7B0FEDE
:10135C00C9E70B48FEF7ACFE074BDA68120A7F238D
:10136C0013405843EEE7FA20C001BCE70448BAE743
:10137C0080200002B7E7C046001002400024F400B1
:10138C0000127A0070B504000D00002800D1AAE00C
:10139C00574B1A68072313408B4221D323689A07B3
:1013AC000ED55B0705D5534A9168E023DB010B434F
:1013BC009360504A936850490B40A1680B4393606B
:1013CC002368DB0754D56368012B20D0022B3BD05C
:1013DC00002B3FD1474A126852051CD401206AE009
:1013EC00434A136807218B432B431360FFF71EFA04
:1013FC0006003F4B1A6807231340AB42CED0FFF7D1
:10140C0015FA801B3D4A9042F3D9032053E0394A28
:10141C001268920369D537498A68072082431343BF
:10142C008B60FFF703FA0600324B9B6838221A4098
:10143C006368DB009A421BD0FFF7F8F9801B2F4B37
:10144C009842F1D9032036E02A4A12689201E2D47C
:10145C00012030E0032B05D0264AD26D9207DAD456
:10146C00012028E0234A126E9207D4D4012022E0F6
:10147C001F4B1A6807231340AB421DD823685B0728
:10148C0006D51C4A93681E490B40E1680B439360D8
:10149C00FFF71CFF174B9A68120A0F231340194AC7
:1014AC009B009A581F231340D840174B1860174BBA
:1014BC001868FFF76FF970BD0D4A136807218B434D
:1014CC002B431360FFF7B2F90600094B1A68072388
:1014DC001340AB42D2D0FFF7A9F9801B074B9842BF
:1014EC00F3D90320E7E70120E5E70120E3E7C04655
:1014FC000020024000100240FFF0FFFF88130000A4
:10150C00FF8FFFFF2C2600080000002008000020A1
:10151C00F0B583B0040003689B0362D56D4BDB6BA5
:10152C00DB001ED46B4BDA6B802149050A43DA636E
:10153C00DB6B0B400193019B0126674A11688023EA
:10154C005B000B431360FFF771F90500624B1B68DE
:10155C00DB0508D4FFF76AF9401B0228F6D90325EE
:10156C0002E00026E9E70025002D23D1594BD96D67
:10157C00C02292000B001340114210D0626A9A42B2
:10158C000DD0544AD36D55490B40D06D8021490282
:10159C000143D165D16D52480140D165D365DB075C
:1015AC0010D4002D06D14B4AD36D4C490B40616AC7
:1015BC000B43D365012E15D1464AD36B49490B40D9
:1015CC00D3630FE0FFF732F90700424BDB6D9B074B
:1015DC00E7D4FFF72BF9C01B434B9842F5D90325F1
:1015EC00DFE700252368DB0706D53A4A536D032154
:1015FC008B4361680B4353652368DB0606D5354A7C
:10160C00536D3A490B40A1680B43536523689B0506
:10161C0006D5304A536D36490B4061690B4353650F
:10162C0023685B0506D52B4A536D32490B40A169E3
:10163C000B43536523689B0606D5264A536D2E49EA
:10164C000B40E1680B43536523685B040BD5214ABF
:10165C00536D9B009B08E1690B435365E269802342
:10166C00DB059A4220D023689B020BD5194A536D97
:10167C0022490B40216A0B435365226A8023DB030A
:10168C009A4218D023681B050BD5124A536D1C497E
:10169C000B4021690B43536522698023DB019A427D
:1016AC0010D0280003B0F0BD0A4AD16880235B0239
:1016BC000B43D360D7E7074AD16880235B040B4305
:1016CC00D360DFE7034AD16880235B020B43D3600E
:1016DC00E7E7C0460010024000700040FFFCFFFF2F
:1016EC00FFFFFEFFFFFFFFEF88130000FFF3FFFF7C
:1016FC00FFFFF3FFFFFFCFFFFFCFFFFFFFFFBFFF9A
:10170C00FF3FFFFF30B5036A012293430362056A72
:10171C0042688369164C23400C681C4302239D438A
:10172C008B682B43134DA84205D0134DA84202D011
:10173C00124DA84206D10825AB431D00CB682B43A4
:10174C000425AB430B4DA84205D00B4DA84202D04B
:10175C000A4DA84205D10A4D2A404D6915438A69A4
:10176C002A43426084614A684263036230BDC046CA
:10177C008CFFFEFF002C014000440140004801405A
:10178C00FFFCFFFF30B5036A184A13400362046A7A
:10179C004268C369164D2B400D681D43154B1C4008
:1017AC008B681B022343144CA04216D0124CA0424F
:1017BC0005D0124CA04202D0114CA04207D1114CC2
:1017CC0022404C69240114438A691201224342606D
:1017DC00C5614A68C263036230BD0B4C1C40CB68C8
:1017EC001B022343094C2340E0E7C046FFFEFFFFEA
:1017FC008CFFFEFFFFFDFFFF002C01400044014069
:10180C0000480140FFCFFFFFFFF7FFFFFFFBFFFF8B
:10181C0030B5036A114A13400362046A4568C36910
:10182C000F4A13400A6812021A430E4B1C408B6875
:10183C001B0323430C4CA04205D00C4CA04202D0FD
:10184C000B4CA04204D10B4C2C404D69AD012543EF
:10185C004560C2614A680264036230BDFFEFFFFF5E
:10186C00FF8CFFFEFFDFFFFF002C01400044014016
:10187C0000480140FFBFFFFF30B5036A114A134017
:10188C000362046A4268436D0F4D2B400D681D4383
:10189C000E4B1C408B681B0423430D4CA04205D0FF
:1018AC000C4CA04202D00C4CA04204D1054C14406C
:1018BC004A6912022243426045654A6882650362A6
:1018CC0030BDC046FFFFFEFF8FFFFEFFFFFFFDFF99
:1018DC00002C0140004401400048014030B5036A2F
:1018EC00114A13400362046A4568436D0F4A134062
:1018FC000A6812021A430E4B1C408B681B052343CB
:10190C000C4CA04205D00C4CA04202D00B4CA04277
:10191C0004D10B4C2C404D69AD022543456042650A
:10192C004A68C265036230BDFFFFEFFFFF8FFFFE09
:10193C00FFFFDFFF002C0140004401400048014044
:10194C00FFFFFBFF30B5036A046A0125AC43046258
:10195C008469EF35AC43120122430A24A3430B43A1
:10196C008261036230BD000030B5036A1024A343CA
:10197C0003628469036A054D2C4012032243A024A0
:10198C00A343090119438261016230BDFF0FFFFFC0
:10199C008368034A13400B43072213438360704749
:1019AC008FFFCFFF704710B5846A636A83420ED0F5
:1019BC00A36A834214D0E36A83421AD0236B834216
:1019CC0020D02000FEF772FC0023237710BD0123EA
:1019DC002377C369002BF4D13E330122E254F0E7A4
:1019EC0002232377C369002BEBD13F330122E2544E
:1019FC00E7E704232377C369002BE2D140330122AC
:101A0C00E254DEE708232377C369002BD9D1413395
:101A1C000122E254D5E7704710B5846A636A8342A9
:101A2C000BD0A36A834210D0E36A834210D0236B9D
:101A3C00834204D10823237701E00123237720007C
:101A4C00FFF7E9FF0023237710BD02232377F6E786
:101A5C0004232377F3E7704710B5846A636A8342E3
:101A6C000CD0A36A834213D0E36A834216D0236B53
:101A7C00834219D03D230122E25403E00123237752
:101A8C003E22A3542000FFF7E6FF0023237710BD6E
:101A9C00022323773D330122E254F3E70423237717
:101AAC003C330122E254EDE708232377393301223A
:101ABC00E254E7E703681E4A904206D08022D20522
:101ACC00904202D01B4A904203D1702293434A6841
:101ADC001343174A90420FD08022D20590420BD06C
:101AEC00144A904208D0144A904205D0134A9042AE
:101AFC0002D0134A904203D1124A1A40CB681343C6
:101B0C00802293434A69134303608B68C3620B685A
:101B1C008362074B984205D0084B984202D0084B81
:101B2C00984201D10B690363012343617047C0469E
:101B3C00002C014000040040002000400044014003
:101B4C0000480140FFFCFFFF70B5041E2AD03D2366
:101B5C00C35C002B20D03D2502236355210001C915
:101B6C00FFF7A8FF01234822A3540A3AA3540132D9
:101B7C00A3540132A3540132A3540132A3540132B1
:101B8C00A3540132A3540132A3540132A3540132A1
:101B9C00A3546355002070BD3C330022C254FEF7A1
:101BAC004DFDD8E70120F6E770B5041E2AD03D2381
:101BBC00C35C002B20D03D2502236355210001C9B5
:101BCC00FFF778FF01234822A3540A3AA3540132A9
:101BDC00A3540132A3540132A3540132A354013251
:101BEC00A3540132A3540132A3540132A354013241
:101BFC00A3546355002070BD3C330022C254FFF740
:101C0C00D1FED8E70120F6E770B5036A10229343A2
:101C1C000362026A45688369164C23400C682402EF
:101C2C001C4320239A438B681B011343124A904296
:101C3C0016D0114A904205D0104A904202D0104A58
:101C4C00904207D10F4A15404A6992002A438D6988
:101C5C00AD001543456084614A688263036270BDC0
:101C6C00802293431E00CB681B013343403A9343BD
:101C7C00DFE7C046FF8CFFFE002C01400044014012
:101C8C0000480140FFF3FFFF70B504000D003C233A
:101C9C00C35C012B00D192E03C230121C154142AD6
:101CAC0000D987E09200474B9B589F46006829005B
:101CBC00FFF728FD2268936908210B439361226882
:101CCC00936904398B4393612268936929690B43A7
:101CDC00936100206FE000682900FFF795FF2268F0
:101CEC00916980231B010B439361226893693649E8
:101CFC000B40936121688B692A69120213438B6133
:101D0C00002058E000682900FFF73CFD2268D369E9
:101D1C0008210B43D3612268D36904398B43D36107
:101D2C002268D36929690B43D361002043E0006822
:101D3C002900FFF76DFD2268D16980231B010B433D
:101D4C00D3612268D36920490B40D3612168CB69E8
:101D5C002A6912021343CB6100202CE00068290091
:101D6C00FFF78AFD2268536D08210B4353652268E7
:101D7C00536D04398B4353652268536D29690B43AA
:101D8C005365002017E000682900FFF7A7FD2268C3
:101D9C00516D80231B010B4353652268536D0A4917
:101DAC000B40536521684B6D2A69120213434B6536
:101DBC00002000E001203C230022E25470BD0220F0
:101DCC00FCE7C0466C260008FFFBFFFF30B58468BB
:101DDC00034D2C401B0213430B432343836030BD44
:101DEC00FF00FFFF10B5040008003C23E35C012B4F
:101DFC0000D177E03C230122E25401330132E2545A
:101E0C002268936838490B409360016860294FD071
:101E1C0029D8402957D00CD9502922D14168C26801
:101E2C002068FFF78FFD20685021FFF7B1FD0020DF
:101E3C0005E020290ED009D930290BD001203D23F3
:101E4C000122E254013B0022E25410BD002901D0D2
:101E5C00102904D12068FFF79BFD0020EFE701203B
:101E6C00EDE70120EBE780225201914236D080222F
:101E7C00920191420DD181684268C3682068FFF7D6
:101E8C00A5FF226891688023DB010B43936000203F
:101E9C00D5E7702924D181684268C3682068FFF7B0
:101EAC0095FF2268936877210B4393600020C6E767
:101EBC004168C2682068FFF757FD20686021FFF772
:101ECC0067FD0020BBE74168C2682068FFF73AFD58
:101EDC0020684021FFF75CFD0020B0E70020AEE752
:101EEC000120ACE70220B0E78800CEFF10B51F231D
:101EFC00194001248C40036AA3430362036A8A409D
:101F0C001343036210BD000070B506000D001100F4
:101F1C00102D2ED8AA009B48825897463E22B45CBE
:101F2C00023C62425441E4B2002C00D015E1102D69
:101F3C0057D8AA009448825897463F22B45C023C7A
:101F4C0062425441E4B2EFE74022B45C023C62428C
:101F5C005441E4B2E8E74122B45C023C6242544191
:101F6C00E4B2E1E74222B45C023C62425441E4B286
:101F7C00DAE74322B45C023C62425441E4B2D3E758
:101F8C003E22B25C013A50424241D2B2002A00D108
:101F9C00E5E0002900D1E4E0002B00D1E3E0102DB6
:101FAC0059D8AA007948825897463F22B25C013A28
:101FBC0050424241D2B2E9E74022B25C013A50426F
:101FCC004241D2B2E2E74122B25C013A5042424174
:101FDC00D2B2DBE74222B25C013A50424241D2B269
:101FEC00D4E74322B25C013A50424241D2B2CDE72F
:101FFC003E220220B054082D00D189E031D8002DAA
:10200C004BD0042D2BD1B26A6148D062B26A6148C0
:10201C001063B26A6048506332683832B06AFEF7B7
:10202C0021FD002800D0A2E03268D1688023DB00BB
:10203C000B43D36047E03F220220B054DBE7402241
:10204C000220B054D7E741220220B054D3E74222F9
:10205C000220B054CFE743220220B054CBE701203A
:10206C007EE00C2D17D1326B4948D062326B494857
:10207C001063326B4848506332684032306BFEF765
:10208C00F1FC002800D076E03268D16880235B0137
:10209C000B43D36017E0012062E0726A3C48D062C7
:1020AC00726A3C481063726A3B485063326834323F
:1020BC00706AFEF7D7FC002857D13268D1688023AC
:1020CC009B000B43D360306801222900FFF70EFF01
:1020DC003368324A934205D0314A934202D0314A96
:1020EC00934204D1596C802212020A435A64336819
:1020FC002A4A934223D08022D20593421FD02A4AE7
:10210C0093421CD01A6801210A431A60002027E070
:10211C00F26A1F48D062F26A1E481063F26A1E48C7
:10212C00506332683C32F06AFEF79CFC002820D1E8
:10213C003268D16880231B010B43D360C3E79A68D4
:10214C001A490A40062A18D007398A4217D01A6849
:10215C0001210A431A60002002E0022000E0012065
:10216C0070BD0120FCE70120FAE70120F8E701200F
:10217C00F6E70120F4E70120F2E70020F0E7002069
:10218C00EEE7C046C02600080427000848270008D0
:10219C00B3190008251A0008651A0008002C014024
:1021AC0000440140004801400004004007000100C9
:1021BC0070B505000C00082947D00ED8002919D09D
:1021CC00042908D10268D3683B490B40D360806A6C
:1021DC00FEF796FC16E0012036E00C2908D10268C7
:1021EC00D36836490B40D360006BFEF789FC09E0DD
:1021FC00012029E00268D36831490B40D360406A62
:10220C00FEF77EFC286800222100FFF76FFE2B688A
:10221C002C4A934222D02C4A93421FD02B4A9342F1
:10222C001CD02B68196A2A4A114207D1196A294A0B
:10223C00114203D11A6801218A431A60002C1AD169
:10224C003E230122EA54002070BD0268D368224963
:10225C000B40D360C06AFEF753FCD3E7196A1C4AE3
:10226C001142DED1196A1B4A1142DAD15A6C1B4950
:10227C000A405A64D5E7042C0AD0082C0DD00C2C3B
:10228C0010D0102C13D043230122EA540020DBE79A
:10229C003F230122EA540020D6E740230122EA54CE
:1022AC000020D1E741230122EA540020CCE742234D
:1022BC000122EA540020C7E7FFFBFFFFFFEFFFFFFF
:1022CC00FFFDFFFF002C014000440140004801408D
:1022DC001111000044040000FFF7FFFFFF7FFFFF18
:1022EC0030B53C23C35C012B2DD03C230122C254BE
:1022FC0001330132C254026853689568134CA242F0
:10230C001CD07024A3430C682343536003680F4A0A
:10231C00934206D08022D205934202D00C4A9342BB
:10232C0004D1802295438A682A439A603D23012276
:10233C00C254013B0022C254002030BD054C234046
:10234C004C682343DDE70220F7E7C046002C014030
:10235C0000040040FFFF0FFF10B53C23C35C012BB2
:10236C0044D03C230122C254CB68214A13408A68D2
:10237C001343204A13404A6813431F4A13400A6808
:10238C0013431E4A13400A6913431D4A13404A69FA
:10239C0013431C4A13400A6B13431B4A13408A69AC
:1023AC00120413430268194CA24208D0174CA242E3
:1023BC000AD053643C230022C254002010BD144C9C
:1023CC002340CC692343F1E7124C23408C6A24054B
:1023DC002343114C23400C6A2343104C23404C6A7A
:1023EC0023430F4C2340C96A0B43E2E70220E5E785
:1023FC00FFFCFFFFFFFBFFFFFFF7FFFFFFEFFFFF00
:10240C00FFDFFFFFFFBFFFFFFFFFF0FF002C0140CE
:10241C00FFFFFFEFFFFF0FFFFFFFFFFEFFFFFFFDC3
:10242C00FFFFFFDFF0B50500830749D0541E002ADB
:10243C0045D003000326CAB202E00135013C3ED36D
:10244C0001332A703342F8D1032C30D9FF250D40CB
:10245C002A022A43150415430F2C34D92700103FA8
:10246C003F093E01B4461E001A0010366644156042
:10247C0055609560D5601032B242F8D101373F01FA
:10248C00DB190F270C22274022403C00002A0ED0DB
:10249C003E1FB608B400A4461A001C1D644420C29A
:1024AC00A242FCD103240136B6009B193C40002CFF
:1024BC0005D0C9B21C19197001339C42FBD1F0BD77
:1024CC0003001400C0E72700E2E7C04670B50C4ECD
:1024DC000C4D761BB61005D0002408CD013498475E
:1024EC00A642FAD100F090F8074E084D761BB610B4
:1024FC0005D0002408CD01349847A642FAD170BD0E
:10250C008C2700088C270008942700088C270008CB
:10251C007047C0467047C046034B10B5002B02D025
:10252C00024800F005F810BD000000004D25000821
:10253C0010B5010000230022002000F015F810BD9A
:10254C0070B5074C074D641BA41005D0013CA300CB
:10255C00EB589847002CF9D100F05CF870BDC046E0
:10256C009827000894270008F0B5D6464F464646F3
:10257C009846224BC0B50600186899460F00924643
:10258C00FFF7C6FF1E4B1D68002D2DD06C681F2C4D
:10259C002DDC002E0ED1631C6B604B460234A40064
:1025AC0018686751FFF7B6FF0020E0BCBA46B14689
:1025BC00A846F0BD882251462800A300EB1899507C
:1025CC00873AA2408930FF300168114301608421B1
:1025DC00404649005850022EDDD129008D31FF3183
:1025EC000B6813430B60D6E7064D1D60CEE74B46D8
:1025FC001868FFF78FFF01204042D6E70C0000203F
:10260C008402002088020020F8B5C046F8BC08BC43
:10261C009E467047F8B5C046F8BC08BC9E4670474D
:10262C00000000000000000000000000000000009E
:10263C00000000000000000000000000000000008E
:10264C000100000002000000030000000400000074
:10265C000600000007000000080000000900000050
:10266C00B81C0008C01D0008C01D0008C01D0008D3
:10267C00E21C0008C01D0008C01D0008C01D000899
:10268C00101D0008C01D0008C01D0008C01D00085A
:10269C003A1D0008C01D0008C01D0008C01D000820
:1026AC00681D0008C01D0008C01D0008C01D0008E2
:1026BC00921D0008281F00087E1F00087E1F0008BE
:1026CC007E1F0008461F00087E1F00087E1F0008A2
:1026DC007E1F0008541F00087E1F00087E1F000884
:1026EC007E1F0008621F00087E1F00087E1F000866
:1026FC007E1F0008701F00088C1F0008EE1F0008CA
:10270C00EE1F0008EE1F0008B61F0008EE1F0008A1
:10271C00EE1F0008EE1F0008C41F0008EE1F000883
:10272C00EE1F0008EE1F0008D21F0008EE1F000865
:10273C00EE1F0008EE1F0008E01F0008FC1F000839
:10274C006220000862200008622000084220000875
:10275C006220000862200008622000084A2000085D
:10276C006220000862200008622000085220000845
:10277C006220000862200008622000085A2000082D
:08278C002525000849020008A0
:042794001D0200081A
:102798000024F40001000000040000008002002072
:040000050800074D9B
:00000001FF
